:100000000C941E060C9446060C9446060C94460668
:100010000C9446060C9446060C9446060C94460630
:100020000C9446060C9446060C947D0C0C94EC0C37
:100030000C9446060C9446060C9446060C94460610
:100040000C9446060C9446060C9446060C94460600
:100050000C9446060C9446060C9446060C941E0F0F
:100060000C9446060C9446060C9446060C944606E0
:100070000C9446060C9446060C9446060C944606D0
:100080000C9446060C9446060C9446060C944606C0
:100090000C9446060C9446060C9446060C944606B0
:1000A0000C9446060C9446060C944606000000008C
:1000B000003E5B4F5B3E3E6B4F6B3E1C3E7C3E1CEE
:1000C000183C7E3C181C577D571C1C5E7F5E1C0034
:1000D000183C1800FFE7C3E7FF0018241800FFE7EB
:1000E000DBE7FF30483A060E2629792926407F05AE
:1000F0000507407F05253F5A3CE73C5A7F3E1C1CC4
:1001000008081C1C3E7F14227F22145F5F005F5F83
:1001100006097F017F006689956A6060606060946F
:10012000A2FFA29408047E040810207E2010080874
:100130002A1C08081C2A08081E101010100C1E0C7F
:100140001E0C30383E3830060E3E0E060000000011
:100150000000005F00000007000700147F147F14F8
:10016000242A7F2A1223130864623649562050003D
:1001700008070300001C2241000041221C002A1C29
:100180007F1C2A08083E0808008070300008080814
:100190000808000060600020100804023E51494534
:1001A0003E00427F400072494949462141494D3352
:1001B0001814127F1027454545393C4A49493141B9
:1001C000211109073649494936464949291E000087
:1001D00014000000403400000008142241141414DC
:1001E0001414004122140802015909063E415D59C8
:1001F0004E7C1211127C7F494949363E41414122D1
:100200007F4141413E7F494949417F090909013EFA
:10021000414151737F0808087F00417F4100204021
:10022000413F017F081422417F404040407F021C33
:10023000027F7F0408107F3E4141413E7F0909094A
:10024000063E4151215E7F09192946264949493216
:1002500003017F01033F4040403F1F2040201F3FDC
:100260004038403F63140814630304780403615961
:10027000494D43007F4141410204081020004141A3
:10028000417F04020102044040404040000307084F
:100290000020545478407F2844443838444444284B
:1002A000384444287F385454541800087E090218F2
:1002B000A4A49C787F0804047800447D400020407A
:1002C000403D007F1028440000417F40007C0478BE
:1002D00004787C080404783844444438FC18242406
:1002E0001818242418FC7C08040408485454542486
:1002F00004043F44243C4040207C1C2040201C3C03
:100300004030403C44281028444C9090907C4464F9
:10031000544C44000836410000007700000041368C
:10032000080002010204023C2623263C1EA1A16112
:10033000123A4040207A3854545559215555794144
:100340002154547841215554784020545579400C1B
:100350001E527212395555555939545454593955FC
:100360005454580000457C410002457D420001453F
:100370007C40F0292429F0F0282528F07C545545AC
:10038000002054547C547C0A097F4932494949323F
:100390003248484832324A4848303A4141217A3A54
:1003A00042402078009DA0A07D39444444393D401E
:1003B00040403D3C24FF2424487E4943662B2FFCCB
:1003C0002F2BFF0929F620C0887E09032054547979
:1003D000410000447D413048484A32384040227A4A
:1003E000007A0A0A727D0D19317D2629292F2826C7
:1003F0002929292630484D402038080808080808CF
:100400000808382F10C8ACBA2F102834FA00007B27
:10041000000008142A142222142A1408950022002D
:1004200095AA005500AAAA55AA55AA000000FF00E7
:10043000101010FF00141414FF001010FF00FF1024
:1004400010F010F0141414FC001414F700FF000056
:10045000FF00FF1414F404FC141417101F10101FD5
:10046000101F1414141F00101010F0000000001FC3
:10047000101010101F10101010F010000000FF10CE
:100480001010101010101010FF10000000FF1400CA
:1004900000FF00FF00001F10170000FC04F41414FC
:1004A0001710171414F404F40000FF00F7141414C8
:1004B00014141414F700F7141414171410101F1048
:1004C0001F141414F4141010F010F000001F101F6B
:1004D0000000001F14000000FC140000F010F010D9
:1004E00010FF10FF141414FF141010101F00000050
:1004F00000F010FFFFFFFFFFF0F0F0F0F0FFFFFF54
:100500000000000000FFFF0F0F0F0F0F38444438AA
:10051000447C2A2A3E147E02020606027E027E02E5
:1005200063554941633844443C04407E201E200604
:10053000027E020299A5E7A5991C2A492A1C4C7241
:1005400001724C304A4D4D303048784830BC625AC8
:10055000463D3E494949007E0101017E2A2A2A2A58
:100560002A44445F444440514A444040444A514034
:100570000000FF0103E080FF000008086B6B0836F5
:1005800012362436060F090F060000181800000066
:100590001010003040FF0101001F01011E00191D55
:1005A0001712003C3C3C3C0000000000F0F89C8E20
:1005B0008783878E9CF8F00000FEFF03030303038C
:1005C000070EFCF80000FEFF0303030303070EFC05
:1005D000F80000FFFF00000000000000FFFF000027
:1005E000FEFF8383838383C7EE7C380000F8FC0E14
:1005F00007030303070EFCF800003F7FE0C0808084
:10060000C0E07F3FFFFF01010101010101FFFF0089
:1006100000FFFF0C0C0C0C1C3E77E3C100007FFFB9
:10062000C0C0C0C0C0E0703F1F00001F3F70E0C0EE
:10063000C0C0E0703F1F00007FFFC1C1C1C1C1E366
:10064000773E1C00001F3F70E0C0C0C0E0703F1F3D
:10065000000000000001FFFF01000000D5F08D1434
:10066000A1C881CFD9F1AF20003232FD02010101D2
:100670000101818181F1F1F171717171717181817A
:1006800081010101010101010101010101010101DA
:10069000010101010101010101010102FDFF000051
:1006A00000FCFCFCFFFFFF0303031C1C1C1C1C1CA8
:1006B000030303FCFCFC000000000000000000003D
:1006C0000000000000000000000000000000FFFF2C
:1006D0000000003F3F3FFFFFFFC0C0C03F3F3FFF64
:1006E000FFFFC0C0C03F3F3F000000183C3C3C3C07
:1006F0003C3C3C3C3C3C3C3C3C18000000000000C6
:10070000FFFF000000000000010101810181008065
:1007100000810101010101000000F0F0F0FEFEFE89
:100720000E0E0E8E8E8E8E8E8E8E8E8E7070700051
:100730000000FFFF00000000000000AAFF010129E7
:1007400021290101FFAA000000000000FFFFFFFFB8
:10075000FFFF000000E3E3E3E3E3E31F1F1F0000EC
:1007600000000000FFFF0000000000000000010387
:10077000010301030103010000000000000007075E
:10078000073F3F3F383838070707000000000000E8
:10079000000000000000FF02010202020202020249
:1007A0000202020202020202020202020202020229
:1007B0000202020202020202020202020202020219
:1007C0000202020202020201028040000000000058
:1007D0000000000000000000000000000000000019
:1007E0000000000000000000000000000000000009
:1007F00000000000000000000000000000000000F9
:1008000000000000000000000000000000000000E8
:1008100000000000000000000000000000000000D8
:1008200000000000000000000000000000000000C8
:1008300000000000000000000000000000000000B8
:1008400000000000000000000000000000000000A8
:100850000000000000000000000000000000000098
:1008600000000000000000F8980868981888689850
:10087000F8D80828E828D8F8B81848A8A828D8F838
:100880001808E81808E818F83818C8A8A8D838F8D8
:100890001808E818F8F8F8F0C000000000000000A0
:1008A000000000000000000000000000C040408088
:1008B00000C040408000C0404040008040404000B8
:1008C00080404040000000000000000000000000E8
:1008D0000000000000000000000000000000000018
:1008E00000000000000000FFBF1E4CA9AA2DDEFF83
:1008F0003F1DC82A2BDA3DFF1D08EAAAAA5DBEFFEC
:10090000DE8C292AEA2DAEDFFC180BECA8AB2CDF1D
:10091000FC180BEAAAAA5DBFFF000000000000005F
:1009200000000000000000000000000007010100BE
:10093000000701030400F75555A400040505020053
:100940000405050200000000000000000000000097
:100950000000000000000000000000000000000097
:10096000000000000000000F0D080A0A0A0D0E0F1B
:100970000E0C090A0A0D0E0F0C080B0C090A0D0FBC
:100980000F0F0C080B0C0F0F0F0C080B0A0A0A0DA7
:100990000F0C080B0C090A0D0F00000000000000EE
:1009A0000000000000000000000000000000000047
:1009B0000000000000000101010000000000000034
:1009C0000000000000000000000000000000000027
:1009D0000000000000000000000000000000000017
:1009E000000000000000000000000000F0F0F0F047
:1009F00000FEFEFEFE000000000000F0F0F0F0F04F
:100A000000000000000000FEFEFEFEFE00C0C0C0B0
:100A1000C0C0000000000000000000000000000056
:100A200000000000000000000000000000000000C6
:100A300000000000000000000000000000000000B6
:100A400000000000000000000000000000000000A6
:100A50000000000000000000000000000000000096
:100A6000000000000000000000000000FFFFFFFF8A
:100A700000FFFFFFFF00FCFCFCFC00FFFFFFFFFF8F
:100A800000FCFCFCFCFC00FFFFFFFFFF00FFFFFF82
:100A9000FFFF000000000000000000000000000058
:100AA0000000000000000000000000000000000046
:100AB0000000000000000000000000000000000036
:100AC0000000000000000000000000000000000026
:100AD0000000000000000000000000000000000016
:100AE000000000000000000000000000FFFFFFFF0A
:100AF00000FFFFFFFF00FFFFFFFF00FFFFFFFFFF03
:100B000000FFFFFFFFFF00FFFFFFFFFF00FFFFFFF2
:100B1000FFFF0000000000000000000000000000D7
:100B200000000000000000000000000000000000C5
:100B30000000000000000000000000008080800035
:100B40000000008080808080000000000000000025
:100B50000000000000000000000000000000000095
:100B6000000000000000000000000000FFFFFFFF89
:100B700000FFFFFFFF00FFFFFFFF00FFFFFFFFFF82
:100B800000FFFFFFFFFF00FFFFFFFFFF00FFFFFF72
:100B9000FFFF000000000000000000000000000057
:100BA0000000000000000000000000000000000045
:100BB000000000000000000000001E3F211A3A2142
:100BC0001E001F3F201A0A06010000080B00020247
:100BD00002000009040000010202000005240010C8
:100BE0000105240101010424020605240600010771
:100BF00005810310004009040100020A00000007FB
:100C000005020240000007058302400000040309BA
:100C10000412010002EF020140412336800001016D
:100C200002030141726475696E6F204C4C430041B0
:100C3000726475626F7900009B0FBB1311241FBE95
:100C4000CFEFDAE0DEBFCDBF11E0A0E0B1E0ECE92C
:100C5000FEE202C005900D92A03BB107D9F726E055
:100C6000A0EBB1E001C01D92A935B207E1F716E093
:100C7000CDE1D6E004C02197FE010E944915CC3198
:100C8000D107C9F70E94E10F0C9441170C940000A2
:100C9000EFEEF1E0A0E0B8E000800EBC8111012C85
:100CA0001197A0FDFDCF0192B9F70DB40895FC0195
:100CB0008091EE01882311F13FB7F89482E0809390
:100CC000E9002091F200822F90E01816190614F422
:100CD00081E090E0882339F0289844E64093ED01C4
:100CE0004091F1004083222339F02091F20021113C
:100CF00003C02BE62093E8003FBF08958FEF9FEFDE
:100D000008952FB7F89483E08093E9009091E8006C
:100D1000892F807295FF04C09091F20080E4891BB6
:100D20002FBF08958091E50181110DC082E080936D
:100D3000E10184E08093E2011092E4011092E3016A
:100D400081E08093E50181EE91E00895CF93DF93F8
:100D50001F92CDB7DEB76983DC01ED91FC91028073
:100D6000F381E02D41E050E0BE016F5F7F4F0995B8
:100D70000F90DF91CF91089583E08093E9008091F7
:100D8000F200882319F08AE38093E80008950E9416
:100D9000810690E00895CF93DF931F92CDB7DEB721
:100DA000FC018485958597FD08C02FEF3FEF3587BF
:100DB00024870F90DF91CF910895CE0101960E9474
:100DC0005706019719F4898190E0F3CF8FEF9FEFD9
:100DD000F0CF0F931F93CF93DF931F92CDB7DEB762
:100DE0008C01FC018485958597FF0BC0CE0101968F
:100DF0000E945706019771F4898190E0F801958768
:100E00008487F801848595850F90DF91CF911F919C
:100E10000F9108958FEF9FEFF1CFFC0184859585A9
:100E200097FD0BC09FB7F89482E08093E900809112
:100E3000F2009FBF90E0019608959FB7F89482E07A
:100E40008093E9008091F2009FBF90E00895409167
:100E5000DB015091DC012091D9013091DA01421778
:100E60005307B4F49091E8009570E1F39091E80095
:100E700092FD19C08093F1008091DB019091DC011B
:100E800001968F739927892B19F48EEF8093E800D0
:100E90008091DB019091DC0101969093DC018093BD
:100EA000DB0181E0089580E00895DF92EF92FF92E8
:100EB0000F931F93CF93DF93D82E8A01EB017B0111
:100EC000E40EF51ECE15DF0559F0D7FE12C0FE0167
:100ED00084910E94270721968111F4CF0FEF1FEF15
:100EE000C801DF91CF911F910F91FF90EF90DF909C
:100EF00008958881EECF0F931F93CF93DF931F92B6
:100F0000CDB7DEB782E0898342E450E06BEC7BE052
:100F100080E80E9455070E949206DC0112960D910E
:100F20001C910115110589F0D801ED91FC91028009
:100F3000F381E02DBE016F5F7F4FC801099597FDDA
:100F400004C0F80100851185ECCF89810F90DF91F5
:100F5000CF911F910F910895615030F02091F100D1
:100F6000FC0120830196F8CF289884E68093ED0158
:100F70000895FC010E945008319728F068517C4F79
:100F80008F4F9F4FF9CFAB01FC010E9450086417AF
:100F900075078E079F07C8F308958F929F92AF92AF
:100FA000BF92CF92DF92EF92FF920F931F93CF9356
:100FB000DF936C017B018A0180912701882309F46A
:100FC0005AC08091EE01882309F455C08091E00158
:100FD00080FF05C08091E00082608093E000E8011E
:100FE000B12C8AEFA82E93E0892E2AE3922E209727
:100FF00011F4BB20C9F10E948106811108C0AA9496
:10100000AA20C9F181E090E00E94B907F0CF8C17C7
:101010001D0611F00CF08C2F9FB7F8948092E90018
:101020002091E80025FD02C09FBFE1CF282F30E0CE
:10103000C21BD30BF701815020F041914093F10086
:10104000FACFE20EF31EBB2021F09092E800B12C03
:10105000EBCF8091E80085FDE7CF9092E800BB24BC
:10106000B394209709F3F3CF5D9884E68093DF0172
:10107000101611063CF081E090E0F6019383828324
:1010800010E000E0C801DF91CF911F910F91FF9018
:10109000EF90DF90CF90BF90AF909F908F9008958A
:1010A000A5EDB1E02FB7F8947D918D919C9166B537
:1010B0002FBFA89B05C06F3F18F47F5F8F4F9F4FD6
:1010C00022E0660F771F881F991F2A95D1F7089590
:1010D000AF92BF92CF92DF92EF92FF920F931F9346
:1010E000CF93DF936C017B018B01040F151FEB0184
:1010F0005E01AE18BF08C017D10759F06991D6013B
:10110000ED91FC910190F081E02DC6010995892BAC
:1011100079F7C501DF91CF911F910F91FF90EF906B
:10112000DF90CF90BF90AF9008952F923F924F9253
:101130005F926F927F928F929F92AF92BF92CF9267
:10114000DF92EF92FF920F931F93CF93DF93FC01F7
:101150002B011A018C2DC02FD0E0DE01AE0FBF1F76
:10116000109709F46AC16B01CE0CD11CCD2809F48B
:1011700064C1452B09F461C1162FA038B10514F0E4
:1011800000E80E1B91E0AE2DA77009F490E0E69404
:10119000E694E6949E0D993008F098E0DF018330E4
:1011A00009F4FEC008F05CC1813009F461C18230ED
:1011B00009F043C12FEF30E0042C02C0220F331F8F
:1011C0000A94E2F720953095932E80E0981709F461
:1011D00034C1AD0141515E4F7A01D12CC12CC016F2
:1011E00050F5F101EC0DFD1DE491F0E03F01042C00
:1011F00002C0660C771C0A94E2F787FD05C0F70170
:10120000B080B222B628B082112371F0873064F426
:101210005701F0E8AF0EB11CF5018080E82DE921FF
:101220008E2E8728F5018082FFEFCF1ADF0A4FEF5D
:10123000E41AF40AD4CF8F5F2C0E3D1EA058BF4F86
:10124000C5CF8F5F2C0E3D1EA058BF4F891709F4E4
:10125000F4C09D0121513E4FF12CE12CE01688F79E
:10126000F101EE0DFF1DE491F0E05F01042C02C0DE
:10127000AA0CBB1C0A94E2F787FD04C0F901D080D8
:10128000DA28D082112351F0873044F46901F0E864
:10129000CF0ED11CF601A080BA28B082FFEFEF1A62
:1012A000FF0A2F5F3F4FDACF8F5F2C0E3D1EA058F5
:1012B000BF4F891709F4C1C09D0121513E4FF12C48
:1012C000E12CE01688F7F101EE0DFF1DE491F0E04E
:1012D0005F01042C02C0AA0CBB1C0A94E2F787FD34
:1012E00006C0F901D080CA2CC094DC20D082112322
:1012F00059F087304CF46901F0E8CF0ED11CB0945E
:10130000F601A080BA20B082FFEFEF1AFF0A2F5F2C
:101310003F4FD7CF8F5F2C0E3D1E2C0F3D1FA05887
:10132000BF4F891709F489C0AD0141515E4F7A0161
:10133000D12CC12CC01670F7F901EC0DFD1DA49045
:10134000B12C042C02C0AA0CBB1C0A94E2F7A09496
:10135000B094F101EC0DFD1D8490912C042C02C081
:10136000880C991C0A94E2F787FD08C0F701708089
:10137000E72DEA217E2E7828F7017082112349F0AB
:1013800087303CF4F701E058FF4FA080BA20B9281D
:10139000B082FFEFCF1ADF0A4FEFE41AF40ACACF88
:1013A000E02EF12CDF01A151BE4F20E830E05901C1
:1013B000AE18BF08CE19DF09CC0FDD1FE1E0F0E069
:1013C0006F01042C01C0CC0C0A94EAF780E04E2D8A
:1013D000592F682FF10185019E01CF93DF93ED0115
:1013E000EF96EF9622968590A590442059F08C9C1C
:1013F0004001AC9C500167302CF4F880B094FB2085
:10140000F928F99266233AF0FC90A094FA20F82883
:10141000FD920C940C0A11964A9529F75A9551F0B1
:101420004E2D63951124E20FF11DA00FB11DC00FC9
:10143000D11DD9CFDF91CF911124DF91CF911F9191
:101440000F91FF90EF90DF90CF90BF90AF909F9063
:101450008F907F906F905F904F903F902F90089566
:101460008A3F21F08B3F49F780E023CF80E0EECE2A
:1014700080E057CF90E00C94B9078FB18095807FC2
:10148000669B88601C9B8460089590E1282F81E012
:1014900061FD84E060FD880F62FD8295687F969F04
:1014A000D0011124A20FA151BE4F0C90082A40FF79
:1014B00008260C9208958F929F92AF92BF92CF927E
:1014C000DF92EF92FF920F931F93CF93DF936D30D4
:1014D00089F0C090CB01D090CC016A30D1F4109249
:1014E000CA011092C90188E0C80ED11CD092CC016B
:1014F000C092CB0181E090E0DF91CF911F910F91DD
:10150000FF90EF90DF90CF90BF90AF909F908F9023
:1015100008950091C9011091CA01E5E06E9FE001B4
:101520001124C455DF4F5801F12CF5E0E12CFF16D2
:1015300029F0CE010196FE01E490EC01912C812C62
:10154000F0E8AF16B10458F4B601680D791D6034A7
:10155000710528F44E2D4170C5010E94450AE6949C
:101560008FEF881A980AE8E08E16910449F7F394F1
:10157000FFEFAF1ABF0A86E0F812D7CF0A5F1F4FFE
:101580001093CA010093C901B5CF9091CD01982362
:1015900029F49091CE01982381E009F480E0089528
:1015A00080E00C944806089590E080E0089542E0C1
:1015B00050E067E571E081E596E00C946808CF9310
:1015C000DF93FC01448155816081718181E596E062
:1015D0000E946808EC010E94D70A8C0F9D1FDF91C2
:1015E000CF910895CF93DF93FC0101900020E9F79C
:1015F0003197AF01481B590BBC0181E596E00E9471
:101600006808EC010E94D70A8C0F9D1FDF91CF91D3
:1016100008950F931F93CF93DF93EC0188819981F5
:10162000009759F02A813B812617370730F081E077
:10163000DF91CF911F910F9108958B016F5F7F4FC5
:101640000E947416009759F0998388831B830A833C
:101650002C813D81232B59F7FC011082E8CF80E0DB
:10166000E7CFCF93DF93EC0188819981009711F048
:101670000E94EB15198218821D821C821B821A821D
:10168000DF91CF910895EF92FF920F931F93CF9325
:10169000DF93EC01FB01E080F180E114F10411F132
:1016A0000481158101151105A9F08C819D81080F18
:1016B000191FB801CE010E94090B882399F02881D7
:1016C00039818C819D81B701820F931F0E943A1747
:1016D0001D830C83CE01DF91CF911F910F91FF905D
:1016E000EF900895CE010E94310BF4CFEF92FF925C
:1016F0000F931F93CF93DF93EC017B018A01BA0113
:101700000E94090B81110BC0CE010E94310BCE014A
:10171000DF91CF911F910F91FF90EF9008951D835E
:101720000C83B701888199810E943A17F0CFEF921C
:10173000FF920F931F93CF93DF93CDB7DEB7299717
:101740000FB6F894DEBF0FBECDBF8C01862FF80117
:101750001182108213821282158214824AE09E0145
:101760002F5F3F4F7901B90190E00E946B14F701A0
:1017700001900020E9F73197AF014E195F09B701D9
:10178000C8010E94760B29960FB6F894DEBF0FBEF3
:10179000CDBFDF91CF911F910F91FF90EF900895F2
:1017A000FB0101900020E9F73197AF01461B570B71
:1017B0000C94760BFC0180819181009711F00C94C0
:1017C000EB1508953F924F925F926F927F928F92A6
:1017D0009F92AF92BF92CF92DF92EF92FF920F93C0
:1017E0001F93CF93DF9300D000D000D0CDB7DEB7EA
:1017F0001A8219821C821B821E821D8260913F0602
:10180000709140066115710541F040914306509179
:101810004406CE0101960E94760B4D815E81842F95
:10182000880F880F840F9FEF940F890F869590E49F
:10183000981B892F90E09093CA018093C901109260
:10184000CC011092CB0169817A8181E596E00E94FA
:101850006808CE0101960E94DA0B81E0482E81E0F3
:10186000582EF12CE12C90E4392EF20101912F0138
:10187000A32CA01AB12CD12CC12C0A0D1B2D111D8B
:1018800037016C0C7D1CF3E0CF16D104B9F0450193
:10189000C8010134110514F080E490E0881699061F
:1018A0004CF441E0B401C3010E94450A8FEF881A4D
:1018B000980AEECFEFEFCE1ADE0AE2CFF5E0EF0E98
:1018C000F11C82E8E816F10481F626960FB6F8942A
:1018D000DEBF0FBECDBFDF91CF911F910F91FF9063
:1018E000EF90DF90CF90BF90AF909F908F907F90C0
:1018F0006F905F904F903F9008951F920F920FB698
:101900000F9211248F939F938091E1009091E100B9
:10191000937F9093E10083FF0FC01092E90091E064
:101920009093EB001092EC0092E39093ED001092F4
:10193000EE0198E09093F00082FF22C093E0909334
:10194000E9009091F200992319F09AE39093E8004E
:101950009091DF01992341F09091DF019150909394
:10196000DF01911101C05D9A9091ED01992341F041
:101970009091ED0191509093ED01911101C0289A41
:1019800084FF18C08091E2008E7E81608093E20027
:101990008091E1008F7E8093E1008091E0018E7E56
:1019A00080618093E0019F918F910F900FBE0F9007
:1019B0001F90189580FFF7CF8091E2008E7E8061A6
:1019C0008093E2008091E1008E7E8093E10080911F
:1019D000E0018E7E8160E5CF1F920F920FB60F92CD
:1019E0001124CF92DF92EF92FF920F931F932F93C8
:1019F0003F934F935F936F937F938F939F93AF9397
:101A0000BF93EF93FF93CF93DF93CDB7DEB76C9780
:101A1000DEBFCDBF1092E9008091E80083FF25C0B2
:101A200068E0CE0145960E94AC0782EF8093E80003
:101A30008D8987FF39C09091E80090FFFCCF982FE7
:101A4000907609F034C19E894F89588D2F89F88C82
:101A5000911131C0803861F58091DE018093F100F1
:101A60001092F1008EEF8093E8006C960FB6F89418
:101A7000DEBF0FBECDBFDF91CF91FF91EF91BF9140
:101A8000AF919F918F917F916F915F914F913F9116
:101A90002F911F910F91FF90EF90DF90CF900F90BB
:101AA0000FBE0F901F9018959EEF9093E800C7CF40
:101AB0001092F100D5CF913059F48111D3CF41303C
:101AC000510581F68091DE018D7F8093DE01CACFC2
:101AD000933049F48111C6CF4130510519F68091F8
:101AE000DE018260F2CF953041F48091E80080FF02
:101AF000FCCF20682093E300B5CF963009F0A9C051
:101B00000B8D1C8D22E01092E9001092DC011092E6
:101B1000DB01F2122EC01092DA011092D9010E945C
:101B20007B071F8299E09983FA8291E09E8390EA75
:101B300098879AEF99872091DB013091DC01275F2C
:101B40003F4F3C832B838D831092E9001092DC0180
:101B50001092DB011093DA010093D90149E050E0C3
:101B6000BE016F5F7F4F80E00E9455070E947B0798
:101B700079CF1093DA010093D9010E949206DC011B
:101B800012960D911C910115110509F451C1D8014E
:101B9000ED91FC910480F581E02DBE016B5E7F4FDD
:101BA000C8010995009709F03EC1F801008511852B
:101BB000EACFF3E0FF120EC08F89882309F440C0FA
:101BC000823061F440E867E08FE29CE00E94680F99
:101BD000811148CF81E28093EB0047CF813029F417
:101BE00040E86BE083E29CE0F1CF833099F70E94FC
:101BF0009206DC011296ED90FC908E010F5F1F4F54
:101C00006801E114F10479F0D701ED91FC910680AF
:101C1000F781E02DB801C7010995080F111DF701E3
:101C2000E084F184EECFD8011C92F60101900020EF
:101C3000E9F73197BF016C197D0940E0C601C6CFB5
:101C40006DE07CE0FB01449150E080E80E94550784
:101C500009CF973009F4BECF983021F481E080930A
:101C6000F10000CF993009F0FDCE837009F0B2CFBA
:101C7000E3E3F1E081E031E096E32191222371F08A
:101C80008093E9003093EB00DF0111972C912093B2
:101C9000EC009093ED008F5F873079F78EE78093AB
:101CA000EA001092EA008F898093EE01DBCE8B8DE3
:101CB0009C8D1092E9001092DC011092DB01909350
:101CC000DA018093D901898D811192C08E899D8915
:101CD000913A49F4813209F07DCF47E050E060E26B
:101CE00071E080E0B3CF913209F074CF833269F4B0
:101CF0008F89988DB0E0A0E080931C0190931D0126
:101D0000A0931E01B0931F01ADCE803269F4809183
:101D1000E80082FFFCCF67E080E291E00E94AC0720
:101D20008BEF8093E8009ECE823209F09BCE8F89A4
:101D300080932701EEEFFFE7859194918B3F9C4DB7
:101D400051F1E0E0F8E08091200190912101A09113
:101D50002201B0912301803B9440A105B105F1F42B
:101D60008091270180FD1AC0EE3F8AE0F80789F5CF
:101D700087E797E791838083809160008093DD01FE
:101D800088E19BE00FB6F894A895809360000FBEA1
:101D90009093600067CEEEEFFAE0D5CF808191811D
:101DA0008737974709F05ECEA895809160008861DB
:101DB000809360008091DD0180936000EE3F2AE017
:101DC000F20789F08091FE0A9091FF0A9183808347
:101DD00049CE808191818737980751F29093FF0A0D
:101DE0008093FE0AC5CF1092FF0A1092FE0A3ACEE7
:101DF0000E949206DC0112960D911C9101151105AD
:101E000009F4E8CED801ED91FC910190F081E02D2C
:101E1000BE016B5E7F4FC8010995811123CEF80189
:101E200000851185EBCF181619060CF41BCED2CE07
:101E3000F1E0FF12BECE61E17CE004CF0F920FB65D
:101E40008F939F93EF93FF938091D0018D5F8D3798
:101E500008F08D578093D001E1EDF1E080818E4F45
:101E6000808391819F4F918382818F4F8283838171
:101E70008F4F8383E5EDF1E080818F5F80838181E7
:101E80008F4F818382818F4F828383818F4F8383A2
:101E90008FB18F6066991C9B88278F3681F4809163
:101EA000CF01981B963068F0E0E0F8E087E7808388
:101EB000818388E180936000F0936000FFCF90936E
:101EC000CF01FF91EF919F918F910FBE0F901895C9
:101ED000EF92FF920F931F93CF93DF93F82E192F5A
:101EE000E62E042F81E0860F880F0E94270783E0EB
:101EF0000E942707CF2DD12FEC0EFD2EF11CCE1501
:101F0000DF05B9F007FF13C0FE0184910E94270787
:101F1000182F80E00E942707812321968111EFCF9F
:101F2000DF91CF911F910F91FF90EF9008958881DD
:101F3000EDCF81E0F5CFCF93DF93EFEEF5E01382A5
:101F4000128288EE93E0A0E0B0E084839583A683BC
:101F5000B7838DE391E0918380838FEF9FEF958727
:101F60008487E1E5F6E0138212828FE491E09183A9
:101F70008083C5E4D6E0198218821B821A821D82F2
:101F80001C826AE571E0CE010E94D00B1F821E8286
:101F9000198618861B861A8666E671E08BE496E041
:101FA0000E94D00BEFE3F6E01182108213821282BE
:101FB0001582148269E571E0CF01DF91CF910C9415
:101FC000D00BCDB7DEB72C97DEBFCDBF789483E0C2
:101FD00084BD83E085BD81E080936E00E1E8F0E0A0
:101FE00083E08083E0E881E08083E1E983E080832F
:101FF000E0E981E08083E1EC87E08083E3EC81E04D
:102000008083E0EC82E08083E2EC81E08083EAE799
:1020100087E08083806880831092EE011092DE0159
:102020001092E0018091D70081608093D70080EA10
:102030008093D80089B5806189BD89B5826089BDEA
:1020400009B400FEFDCF81E090E00E94B9078091C5
:10205000D8008F7C80618093D8008091E000807FE1
:102060008093E0008091E1008E7E8093E1008DE01E
:102070008093E200559A209A81EC80937C0081EF56
:1020800085B987EE84B982E38BB982EF8AB9769AF3
:102090006E9880EF81BB10BA80E58CBD81E08DBD6C
:1020A00085E00E943A0A5F9A85E00E943A0A5C98AD
:1020B000ECE5F6E085918EBD00000DB407FEFDCF86
:1020C000E936C1F75C9A81E88093640081E08093EF
:1020D00065000E94D00A0E943D0A87FF15C05C98E7
:1020E00085EA8EBD00000DB407FEFDCF5C9A2E98E8
:1020F0002F982D988091640080628093640081E025
:1021000083BF889513BEFCCF0E943D0A82FF37C073
:102110002D980E943D0A84788438A1F42D9A88EC89
:102120000E943A0A2F986FEF82E090E00E949D147F
:1021300084EF91E00E94B9072F9A0E943D0A8478AB
:102140008438D9F30E943D0A84718431A1F42D9A18
:1021500088EC0E943A0A2E9860E082E090E00E94AB
:102160009D1484EF91E00E94B9072E9A0E943D0AC7
:1021700084718431D9F388EC0E943A0AC5CF2D9A34
:1021800082E090E00E949514882309F46DC03E9A85
:102190003F9A81E090E00E949514082F0470F02E81
:1021A00081FF0AC001112E9801EF1FEF0E943D0A26
:1021B00086FF5DC02E9A2F9A82E30E943A0A0E94FF
:1021C0003D0A8111F9CF809164008E7F8093640075
:1021D00080917A00806480937A0080917A0086FDF5
:1021E000FCCF00917800109179000E945008AB015B
:1021F000BC01C801B0E0A0E0DC01992788278C0170
:102200009D01040F151F261F371FC901B80120911A
:1022100064002160209364006115710581059105BA
:1022200011F00E9462145FEE852E51E0952E6BE155
:10223000A62E61E0B62E74E3272E312C412C512CB2
:1022400011E036E0F32E40E0642E40E0742E009161
:10225000B801002309F4A6C01092B80161147104FA
:10226000B1F30E940000ECCF3E983F9892CFFF2040
:1022700029F00430110511F42E9A2F9881E00E9464
:102280004806202F2770722EA801F3E05595479538
:10229000FA95E1F79A013695322F2227379527953F
:1022A00021513E4F70E060E04E3F8FEF580761F1E3
:1022B00090E080E0DB01A455BA4F5901E0E8AE0E92
:1022C000B11CFD01E80FF91FE491F0E02F01072C8C
:1022D00002C0440C551C0A94E2F74F3F540739F0F2
:1022E0004901880E991EF401D488D428D48A772015
:1022F00039F04501880E991EF401E488E528E48A46
:10230000019688359105E9F64F5F5F4F20583F4FA2
:10231000685A7F4F603B710539F60E94D00A8FE002
:102320000E943A0A0F5F1F4F0931110509F03ECF95
:10233000FF2011F02F9A2D9880E991E00E94B907B3
:102340002D9A81E090E00E94951480FF35CF8AE0BD
:1023500090E00E9495149FEF980F9E3F08F02CCFBD
:1023600022E330E03093CA012093C90128E330E032
:102370003093CC012093CB010BE010E0682F81E576
:1023800096E00E945B0AC8010E9495140F5F1F4FE0
:102390000131110599F70E94D00A88EE93E00E945E
:1023A000B9070ACF8091D1019091B901282F291B3B
:1023B000203138F42F3009F451CF13BF889513BE64
:1023C0004DCF1093B8018093B901E6EBF1E0808125
:1023D00091810196808391838091CE018093CD017C
:1023E0000E943D0A8093CE01F40101110FEF8FEF9F
:1023F00001930193019301938150D0F71092CC0186
:102400001092CB011092CA011092C9018091C801AB
:10241000823009F499C040F4882399F1813009F49D
:102420007AC00E94D00A1ACF833009F46BC184307D
:10243000C1F780911B01813009F46FC1823009F02E
:1024400079C1A2E0B1E080E09D91682F262F062E91
:10245000000C330BA9014F5F5E4FFA0140812E5FE4
:102460003E4F941720F4F9014083615078F7E62F2E
:10247000660FFF0BEE5FFE4F90838F5F893121F770
:1024800059C18091BE01811115C02FB7F894809178
:10249000D1019091D201A091D301B091D4012FBF6D
:1024A0008093BA019093BB01A093BC01B093BD018E
:1024B0001093BE012FB7F8948091D1019091D20171
:1024C000A091D301B091D4012FBF4091BA01509196
:1024D000BB016091BC017091BD01841B950BA60BE3
:1024E000B70B883B9B40A105B10510F01093C801C4
:1024F000E9E6F6E00491EAE6F6E0E49022E0C22E96
:1025000030E020E04BE656E067E070E087E290E0E4
:102510000E94950886CF84E00E94C50A882319F09E
:1025200082E08093C801E9ECF7E00491EAECF7E07F
:10253000E49092E0C92E30E020E04BEC57E070E0F0
:1025400060E090E080E0E4CF0E943D0A87FFBCC0DD
:1025500080910001843308F0B7C08F5F8093000141
:1025600088E00E94C50A882371F08091C7018931F3
:1025700050F4E82FF0E0EF5FFE4F90910001908360
:102580008F5F8093C70180E20E94C50A8823D1F043
:102590008091C6018111A3C081E0C82E81E0D82EB0
:1025A0000E941314A20191010E94AF146F5F7F4F2C
:1025B0008F4F9F4FF60161936F011093C601AE16C6
:1025C000BF0671F784E00E94C50A882319F083E0F2
:1025D0008093C80160910001CE0101960E94970B83
:1025E00018861F821A8619861C861B8665E771E08D
:1025F000CE0107960E94D00BBE016F5F7F4FCE01C8
:1026000007960E94430B0E94DF0ACE0107960E94A4
:10261000DA0BCE0101960E94DA0B6091C701CE0160
:1026200001960E94970B18861F821A8619861C86AF
:102630001B866EE771E0CE0107960E94D00BBE01AB
:102640006F5F7F4FCE0107960E94430B0E94DF0A07
:10265000CE0107960E94DA0BCE0101960E94DA0B9A
:102660008091C601882309F443C086E891E00E9466
:10267000F20A8FE991E00E94F20A8FE396E00E944D
:10268000DF0A00911B01202F2150330BF29EF00135
:10269000F39EF00D1124EB5BF94F608171816115A0
:1026A000710549F1448155818FE396E00E94760BD4
:1026B00080E40E94C50A882309F4B3CE023000F5F5
:1026C0000F5F00931B01ADCE0E943D0A84FF48CFEF
:1026D00080910001823008F443CF81503FCFE1E088
:1026E000F1E01193AE16BF06E1F71092C6016ACF72
:1026F00083E991E0BCCF8FE396E00E94310BD8CF05
:102700000150DFCF84E00E94C50A882319F084E0DD
:102710008093C8010E94E20B84CEA1E0B1E080E08A
:102720008F5F982FE92FF0E0EA31F105D0F0119694
:102730008A31B1F784E00E94C50A882359F382E008
:102740008093C801109300011092C701E1E0F1E00D
:102750001193AE16BF06E1F71092C60110931B014C
:10276000D9CFEF5FFE4F30812C91321710F43C939C
:1027700020839F5FD7CF8FE396E00E94DA0B8BE434
:1027800096E00E94DA0B85E496E00C94DA0B8F92C7
:102790009F92AF92BF92CF92DF92EF92FF92CF9330
:1027A000DF93EC01688179818A819B8161157105D4
:1027B0008105910521F464E279ED8BE597E02DE147
:1027C00033EF41E050E00E94AF1449015A019B01F0
:1027D000AC01A7EAB1E40E94CE146B017C01ACEE1F
:1027E000B4EFA50194010E94DC14C60ED71EE81EAA
:1027F000F91EF7FE06C081E0C81AD108E10880E89A
:10280000F80AC882D982EA82FB82C701B6019F77A3
:10281000DF91CF91FF90EF90DF90CF90BF90AF907E
:102820009F908F9008958F929F92AF92BF92CF9278
:10283000DF92EF92FF9260912801709129018091BF
:102840002A0190912B01611571058105910521F4F3
:1028500064E279ED8BE597E02DE133EF41E050E064
:102860000E94AF1449015A019B01AC01A7EAB1E4EF
:102870000E94CE146B017C01ACEEB4EFA501940173
:102880000E94DC14C60ED71EE81EF91EF7FE06C015
:1028900081E0C81AD108E10880E8F80AC09228014E
:1028A000D0922901E0922A01F0922B01C701B601D2
:1028B0009F77FF90EF90DF90CF90BF90AF909F9069
:1028C0008F900895609328017093290180932A01C5
:1028D00090932B010895BB27FB015527AA27880F4A
:1028E000991FAA1FA41710F0A41B83955051B9F784
:1028F000A05DAA3308F0A95DA193009779F7B11103
:10290000B1931192CB010C948514DC01FC01672F6B
:1029100071917723E1F7329704C07C916D937083B6
:102920006291AE17BF07C8F30895F999FECF92BD23
:1029300081BDF89A992780B50895262FF999FECF81
:1029400092BD81BDF89A019700B4021639F01FBA02
:1029500020BD0FB6F894FA9AF99A0FBE0895052E85
:1029600097FB1EF400940E94C61457FD07D00E94E6
:10297000181507FC03D04EF40C94C61450954095DE
:10298000309521953F4F4F4F5F4F0895909580951B
:10299000709561957F4F8F4F9F4F08950E943A1514
:1029A000A59F900DB49F900DA49F800D911D1124A3
:1029B0000895B7FF0C94CE140E94CE14821B930B83
:1029C00008952F923F924F925F926F927F928F92D3
:1029D0009F92AF92BF92CF92DF92EF92FF920F93AE
:1029E0001F93CF93DF93CDB7DEB7CA1BDB0B0FB6B8
:1029F000F894DEBF0FBECDBF09942A883988488875
:102A00005F846E847D848C849B84AA84B984C8840A
:102A1000DF80EE80FD800C811B81AA81B981CE0F01
:102A2000D11D0FB6F894DEBF0FBECDBFED010895E6
:102A3000A1E21A2EAA1BBB1BFD010DC0AA1FBB1FC2
:102A4000EE1FFF1FA217B307E407F50720F0A21B34
:102A5000B30BE40BF50B661F771F881F991F1A94A1
:102A600069F760957095809590959B01AC01BD01CB
:102A7000CF010895A29FB001B39FC001A39F700D25
:102A8000811D1124911DB29F700D811D1124911D76
:102A90000895EE0FFF1F0590F491E02D09940F9318
:102AA0001F93CF93DF938230910510F482E090E082
:102AB000E0915706F091580630E020E0B0E0A0E049
:102AC000309799F42115310509F44AC0281B390BB8
:102AD00024303105D8F58A819B816115710589F112
:102AE000FB0193838283FE0111C0408151810281E9
:102AF000138148175907E0F04817590799F41097C0
:102B000061F012960C93129713961C933296CF0194
:102B1000DF91CF911F910F91089500935706109365
:102B20005806F4CF2115310551F04217530738F0FC
:102B3000A901DB019A01BD01DF01F801C1CFEF015D
:102B4000F9CF9093580680935706CDCFFE01E20F40
:102B5000F31F819391932250310939832883D7CF72
:102B60002091550630915606232B41F420912E01D9
:102B700030912F01309356062093550620912C0159
:102B800030912D012115310541F42DB73EB740910B
:102B9000300150913101241B350BE0915506F09125
:102BA0005606E217F307A0F42E1B3F0B2817390730
:102BB00078F0AC014E5F5F4F2417350748F04E0F99
:102BC0005F1F5093560640935506819391939FCF74
:102BD000F0E0E0E09CCFCF93DF930097E9F0FC01B9
:102BE000329713821282A0915706B0915806ED01D8
:102BF00030E020E01097A1F420813181820F931FF3
:102C000020915506309156062817390709F061C002
:102C1000F0935606E0935506DF91CF910895EA01AF
:102C2000CE17DF07E8F54A815B819E01411551050A
:102C3000B1F7E901FB83EA8349915991C40FD51F8C
:102C4000EC17FD0761F4808191810296840F951F36
:102C5000E90199838883828193819B838A83F0E051
:102C6000E0E012968D919C9113970097B9F52D9104
:102C70003C911197CD010296820F931F209155062A
:102C8000309156062817390739F6309751F51092CA
:102C9000580610925706B0935606A0935506BCCF1F
:102CA000D383C28340815181840F951FC817D907F0
:102CB00061F44E5F5F4F88819981480F591F51839E
:102CC00040838A819B81938382832115310509F09A
:102CD000B0CFF0935806E09357069ECFFD01DC017C
:102CE000C0CF13821282D7CFB0E0A0E0EAE7F6E1CE
:102CF0000C94E3148C01009751F4CB010E944F1502
:102D00008C01C801CDB7DEB7E0E10C94FF14FC01E3
:102D1000E60FF71F9C0122503109E217F30708F470
:102D20009DC0D901CD91DC911197C617D70798F0B6
:102D3000C530D10530F3CE0104978617970708F305
:102D4000C61BD70B2297C193D1936D937C93CF0170
:102D50000E94EB15D6CF5B01AC1ABD0A4C018C0E5C
:102D60009D1EA0915706B0915806512C412CF12C74
:102D7000E12C109731F580915506909156068815F3
:102D8000990509F05CC04616570608F058C08091B6
:102D90002C0190912D01009741F48DB79EB7409181
:102DA000300150913101841B950BE817F90708F0A9
:102DB00055C0F0935606E0935506F9017183608380
:102DC000A0CF8D919C91119712966C9012971396AB
:102DD0007C901397A815B90559F56C0142E0C40E13
:102DE000D11CCA14DB0420F1AC014A195B09DA01D9
:102DF0001296159780F06282738251834083D901C5
:102E00006D937C93E114F10471F0D7011396FC9358
:102E1000EE93129776CF22968C0F9D1FF901918326
:102E20008083F301EFCFF0935806E093570669CF04
:102E30004816590608F42C017D01D3019ACFCB0125
:102E40000E944F157C01009749F0AE01B8010E9425
:102E50003117C8010E94EB15870153CF10E000E045
:102E600050CFFB01DC0102C001900D924150504057
:102E7000D8F70895FB01DC0101900D920020E1F7E5
:102E8000089516E0CDE1D6E004C0FE010E94491588
:0C2E90002196CE31D107C9F7F894FFCF8E
:102E9C000101010101010101010101010101010116
:102EAC00010101010101010101010101FFFFFFFF0E
:102EBC0000E10000000000000100000000005906C5
:102ECC00800000C1808100000000000000A606CD3B
:102EDC0007C706BC060D07CB06E906000000005B21
:102EEC000A6808D40AD30A0D0A00427562626C653E
:102EFC0020536F727400496E73657274696F6E2023
:102F0C00536F7274004E756D6265723A2000496E93
:102F1C006465783A20000A52616E646F6D3A2059EC
:102F2C006573000A52616E646F6D3A204E6F000A31
:102F3C00536F7274696E67204D6574686F643A00E4
:00000001FF
